:1000000073C0ADC092C091C090C08FC08EC08DC073
:100010008CC08BC08AC089C088C087C086C085C09C
:1000200084C083C082C00902190001010080320926
:1000300004000001030000000705810308000A1204
:10004000011001FF000008501D3260010001020391
:1000500001100365007400680065007200690061AA
:10006000001C036E0052004600320034004C003089
:100070000031002D0074006F006F006C001E0377CC
:1000800000770077002E006E00630072006D006E36
:100090000074002E006F0072006700040309045210
:1000A0004541534F4E3A204661696C656420746F38
:1000B00020656E61626C6520657874656E64656448
:1000C0002066656174757265732E204172652074B7
:1000D00068657920737570706F72746564206279D9
:1000E00020636869703F000011241FBECFE5D4E093
:1000F000DEBFCDBF10E0A0E6B0E0E6EEF6E102C064
:1001000005900D92A43AB107D9F713E0A4EAB0E044
:1001100001C01D92A838B107E1F7F894D7D98EDA5B
:100120007894DDD9E8D933D1DBCA6ACFA82FB92FAB
:1001300080E090E041E050EA609530E009C02D9108
:1001400082279795879510F084279527305EC8F30E
:100150006F5FA8F30895EADF8D939D930895CF9381
:10016000CFB7CF93DF93C395829BE9F7829B11C0F2
:10017000829B0FC0829B0DC0829B0BC0829B09C0DB
:10018000829B07C0829B05C0829B03C0829B01C0EB
:1001900083C06F93C091EB02DD27CE50DD4F2F93CC
:1001A00020E400C065E0829B03C02F916F91DECFF9
:1001B0000F931F934F9345E55F9355E53F933BE0C6
:1001C00018E000B30C702EC06A95C9F03150D8F118
:1001D00000B30C7001130BC008942795299320E4F9
:1001E000555500F46A9569F701E060B30BC0102F14
:1001F00066E02695299320E4555518F3E2CF0FEFDA
:1002000060B30000162F455500F0404066E01C70BA
:100210000030E2F221F0000000B30C7003C000B324
:100220000C70A9F0011309C00894279568F200C06A
:100230006A95A9F700E060B3E5CF102F66E0269538
:1002400028F20000ECCF10E41ABF002719C03B5081
:100250003195C31BD04010E41ABF0881033C09F15B
:100260000B34F9F02091E9021981110F1213EDCF2F
:100270004A81441F093651F10D3211F0013E29F730
:100280000093F0023F915F914F911F910F912F9139
:100290006F91CAB7C6FD67CFDF91CF91CFBFCF9126
:1002A00018952091F002222369F31091EE02112398
:1002B00081F5343082F13093EE022093EA021091FE
:1002C000EB023BE0311B3093EB0225C00091EE02C4
:1002D0000130FCF40AE54F7049F43091600034FDC0
:1002E0001BC000936000C2EDD2E01AC03091DD0265
:1002F00034FD12C00093DD02CEEDD2E011C005271F
:1003000010E000C002BB19C0052710E0221F00C08A
:100310001DC04AE502C032ED432FC4E1D0E032E017
:1003200011B31C60929A02B311BB5CE020E869E44F
:1003300020FF052702BB2795179500C000001C3F32
:10034000F0F66695A8F7A1F720FF052702BB2795D1
:10035000179500001C3FC0F629913A9541F7037F9D
:100360001091EF02110F02BBC651D04011F0109353
:10037000E90210E41ABF046011B3137F402F437FDA
:1003800055E05A95F1F702BB11BB42BB7BCF80E031
:1003900090E00895FFCFCF93C62F2091DD0224FF78
:1003A00007C02091DE0238E823272093DE0203C035
:1003B0002AE52093DD02DC01EFEDF2E09C2F9E0F99
:1003C0008D918193892F8E1B1816D4F36C2F8FED8E
:1003D00092E0C1DECC5FC093DD02CF910895CF9350
:1003E000DF936091EE02635067FDB7C08091EB022E
:1003F000CCE0D0E0C81BD109CE50DD4F8091EA029D
:100400008D3209F099C0683009F0A5C083EC809363
:10041000D2028AE5809360001092A40088818076E1
:1004200019F0CE01ADD675C09A811092DB02898198
:10043000811106C01092DC022BED32E082E065C033
:10044000853019F49093EF025DC0863009F044C006
:100450008B81813041F48FE390E09093ED028093A3
:10046000EC0282E135C0823041F486E290E0909364
:10047000ED028093EC0289E12BC0833041F59111AC
:1004800008C08BE990E09093ED028093EC0284E049
:100490001FC0913041F48DE790E09093ED0280937E
:1004A000EC028EE115C0923041F481E690E0909329
:1004B000ED028093EC028CE10BC0933041F481E5B6
:1004C00090E09093ED028093EC0280E101C080E027
:1004D00090E49093A4001DC0883069F0893019F42D
:1004E0009093F1020FC08A3049F08B3059F48BE4BD
:1004F0008093DE0207C021EF32E002C02BED32E034
:1005000081E003C02BED32E080E03093ED022093D8
:10051000EC028F3F39F4988197FD8E8190E890939B
:10052000A40007C09F81911104C09E81981708F410
:10053000892F809361000FC08091A40087FF0BC0BA
:10054000CE010CD78F3F21F48EE18093600003C071
:100550008111109261001092EE028091600084FF80
:1005600046C0809161008F3F09F441C0C82F893097
:1005700008F0C8E08C1B809361008091D20298E85B
:1005800089278093D202CC2331F12091EC02309163
:10059000ED028091A40086FF0BC0F901A3EDB2E04B
:1005A0008C2F8A0F94919D9331968A13FBCF09C0AB
:1005B000D901E3EDF2E08C2F8E0F9D9191938E1374
:1005C000FCCF8C2F815090E00196820F931F909367
:1005D000ED028093EC026C2F83ED92E0BCDDCC5FEA
:1005E000CC3019F08FEF80936100C093600084E1FC
:1005F00090B39C7031F48150D9F71092EF021092B1
:10060000E902DF91CF91089585B7826085BF8BB7EE
:1006100080648BBF8BE48093DE028AE58093DD02E9
:100620000895E0917200F09173000190F081E02D47
:1006300090E00994E0917200F09173000280F381E0
:10064000E02D90E00994E0917200F0917300068033
:10065000F781E02D0994E0917200F091730000841D
:10066000F185E02D09940F931F93CF93DF9300D072
:10067000CDB7DEB789838B0180E04A83D2DF61E0AA
:10068000CE010196E0DF4A81442319F0642FC801AE
:10069000E2DF81E0C6DF0F900F90DF91CF911F91D5
:1006A0000F9108950F931F93CF93DF9300D0CDB791
:1006B000DEB789838B0180E04A83B3DF61E0CE013E
:1006C0000196C1DF4A81442319F0642FC801BBDFC2
:1006D00081E0A7DF0F900F90DF91CF911F910F91D5
:1006E0000895862FBA018F71422F8062DBCFCF939E
:1006F000DF931F92CDB7DEB7862F49838F7141E01C
:10070000BE016F5F7F4F8062CDDF0F90DF91CF9191
:100710000895CF93DF931F92CDB7DEB7862F41E0C8
:10072000BE016F5F7F4F8F719EDF89810F90DF91D8
:10073000CF910895EF92FF920F931F93CF93DF9382
:10074000CDB7DEB7A1970FB6F894DEBF0FBECDBF11
:10075000FC018B0180EA89A3E384F42EE41608F4FB
:10076000FE2C828583FD02C0EF1801C0E12C4E2DC6
:1007700050E060E070E0CE010196A4D780E051DF48
:1007800061E0CE0181965FDF6F2DC8015CDF6E2DC9
:10079000CE01019658DF81E044DFA1960FB6F894B0
:1007A000DEBF0FBECDBFDF91CF911F910F91FF90A4
:1007B000EF900895EF92FF920F931F93CF93DF93E3
:1007C000CDB7DEB7A1970FB6F894DEBF0FBECDBF91
:1007D000FC018B0181E689A36385F42E641708F47C
:1007E000F62E828583FD03C0E62EEF1801C0E12CB2
:1007F00080E017DF61E0CE01819625DF6F2DC80113
:100800002ADF6E2DCE01019626DF81E00ADFA19658
:100810000FB6F894DEBF0FBECDBFDF91CF911F9111
:100820000F91FF90EF90089540E060E070E082EE5D
:100830001ACF40E060E070E081EE15CFCF93DF93F8
:100840001F92CDB7DEB780E0ECDE61E0CE0101960D
:1008500002DF81E0E6DE89810F90DF91CF9108957C
:10086000CF92DF92EF92FF920F931F93CF93DF937C
:10087000CDB7DEB72A970FB6F894DEBF0FBECDBF57
:100880008C017B0180E0D6DEF7018081803808F0A2
:100890008FE78A8741E0BE01665F7F4F85E202DF16
:1008A000F7018481F0E18F9FC0011124F70193814A
:1008B0009F70982B998741E0BE01675F7F4F84E26C
:1008C000F1DE6DE1C80125DFC82E6CE1C80121DF32
:1008D000F7012781213208F020E2F8012387F70190
:1008E0009681F8012285992341F09C2D946028601F
:1008F00022874FE3D42ED82A08C09C2D9B7F277FC8
:10090000F801228730ECD32ED822F7012581F80197
:100910008285222341F08061828726E0C22EC92A87
:10092000F3E0DF2A06C08F7EF80182878DEFC82EA4
:10093000C922C88641E0BE01685F7F4F8DE3B2DE09
:10094000CC20E1F06DE1C801E4DE81116CC080E5EE
:10095000898383E78A8380E064DE62E0CE010196CA
:1009600072DE81E05EDECF8241E0BE01695F7F4FD3
:100970008DE398DE58C08FE990E00CDDDE8241E027
:10098000BE016A5F7F4F8CE38DDE66E0C801C1DE89
:10099000F8019285292F21602287877DF701228126
:1009A000223029F49E7FF8019287806203C02130B3
:1009B00009F48860897FF7019181933009F40AC0B6
:1009C000923011F4846007C0913011F4826003C04A
:1009D000943009F486608D8341E0BE016B5F7F4FE8
:1009E00086E260DE60E0C80194DE837FF7019085D7
:1009F000913011F4886001C08C608C8341E0BE01AD
:100A00006C5F7F4F80E24EDEF70181858F738B83B1
:100A100041E0BE016D5F7F4F81E244DEC80104DF2B
:100A2000C80107DF06C06DE1C80173DE8111A6CFE2
:100A3000A2CF2A960FB6F894DEBF0FBECDBFDF91CE
:100A4000CF911F910F91FF90EF90DF90CF9008957D
:100A5000FC0181E0828780E28387158616861786EF
:100A6000108A118A148680E0E5DD81E0DADD87EA0C
:100A700091E60197F1F700C0000008950F931F93CE
:100A8000CF93DF9300D0CDB7DEB78C0160E041DEBD
:100A900083608A8341E0BE016E5F7F4F80E202DEA9
:100AA00080E7898341E0BE016F5F7F4F87E2FADD17
:100AB000B801635F7F4F45E08AE2F4DD81E0BADD93
:100AC00089E892E00197F1F700C000000F900F90C5
:100AD000DF91CF911F910F9108950F931F93CF93A3
:100AE000DF931F92CDB7DEB78C0180E0A3DD60E01D
:100AF000C8010FDE8E7F898341E0BE016F5F7F4FAB
:100B000080E2D0DD0E5E1F4F45E0B8018AE2CADD0B
:100B100045E0B80180E3C6DD0F90DF91CF911F91D2
:100B20000F9108950F931F93CF93DF9300D0CDB70C
:100B3000DEB78B0183DE982F96959770973079F00A
:100B40000115110511F0F801908380E4898341E0DB
:100B5000BE016F5F7F4F87E29A83A4DD9A8121E017
:100B600030E0973011F420E030E0C9010F900F9091
:100B7000DF91CF911F910F910895CF93DF93EC01F7
:100B800019DE67E1CE01C5DD817090E0DF91CF9184
:100B90000895EF92FF920F931F93CF93DF931F92CD
:100BA000CDB7DEB78C017B0145E08AE27BDD45E015
:100BB000B70180E377DDF70120E030E08191D801D3
:100BC000A20FB31F52968C932F5F3F4F25303105F4
:100BD000A9F7F8018385813208F080E2898341E03A
:100BE000BE016F5F7F4F81E35DDD0F90DF91CF919D
:100BF0001F910F91FF90EF900895EF92FF920F9346
:100C00001F93CF93DF93CDB7DEB763970FB6F894FA
:100C1000DEBF0FBECDBF8C01E62E86E0EDE8F0E032
:100C2000DE011D9601900D928A95E1F786E0E3E9D9
:100C3000F0E0DE01179601900D928A95E1F786E0CB
:100C4000E9E9F0E0DE01119601900D928A95E1F755
:100C5000611112C0FA0180E090E02191D801A80F43
:100C6000B91F1D962C93019685309105B1F7FE01B1
:100C7000EE0DF11D25E00AC086E0861718F1A1E00F
:100C80006A17A9F3FE01E60FF11D21E06585C80191
:100C900028DDF12CFE01EE0DFF1DD8011B964C91B5
:100CA0006781C80124DD62E0C80133DDFE01EE0D7D
:100CB000FF1D9181982B9B8B41E0BE016D5E7F4FA4
:100CC00082E2F0DC63960FB6F894DEBF0FBECDBFB4
:100CD000DF91CF911F910F91FF90EF9008950F93A7
:100CE0001F93CF93DF931F92CDB7DEB78C0119828C
:100CF00041E0BE016F5F7F4F80E6B5DC89818132C4
:100D000018F0C80191DD80E00F90DF91CF911F9125
:100D10000F910895CF93DF931F92CDB7DEB760E0B8
:100D2000F8DC8D7F898341E0BE016F5F7F4F80E2F9
:100D3000B9DC0F90DF91CF9108951F93CF93DF938C
:100D40001F92CDB7DEB760E0E4DC182F82608983A4
:100D500041E0BE016F5F7F4F80E2A4DC11FD06C061
:100D60008BE49DE10197F1F700C000000F90DF9147
:100D7000CF911F910895CF93DF93EC016115710519
:100D800009F0D8DC67E1CE01C4DC84FD0AC081E053
:100D900051DC84E68A95F1F780E04CDC20E030E01D
:100DA00002C02BEF3FEFC901DF91CF910895CF92A1
:100DB000DF92EF92FF920F931F93CF93DF9300D0B8
:100DC000CDB7DEB78B017A01690138DD982F80E756
:100DD000898341E0BE016F5F7F4F87E29A8362DCC7
:100DE0009A81892F8072F8018083892F8071F701A1
:100DF00080839074F60190830F900F90DF91CF91D4
:100E00001F910F91FF90EF90DF90CF90089569E0D0
:100E100080DC817090E0089567E17BDC807108954B
:100E2000EF92FF920F931F93CF93DF9300D0CDB734
:100E3000DEB78C017B0167E14A836BDC4A8185FF69
:100E40000BC080E1898341E0BE016F5F7F4F87E285
:100E500029DC25EF3FEF07C0B701C8016BDC81E05B
:100E6000E9DB20E030E0C9010F900F90DF91CF91D6
:100E70001F910F91FF90EF900895EF92FF920F93C3
:100E80001F93CF93DF931F92CDB7DEB77C018B0109
:100E900081E0D0DB0DC09E012F5F3F4FA901B9015A
:100EA000C70185DF8FE493EC0197F1F700C00000E4
:100EB000C701B2DF811103C00150110961F79E0122
:100EC0002F5F3F4FA901B901C70171DF80E0B2DB9D
:100ED000C8010F90DF91CF911F910F91FF90EF907C
:100EE00008959B01FC016193719380E811928A95AA
:100EF000E9F740E061E0C901FACBEF92FF920F936E
:100F00001F93CF93DF93EC018B0129C081E8E82E7A
:100F1000F12C4E2D425065E088819981E8DB888173
:100F20009981ACDD8FE792E00197F1F700C00000F6
:100F300088819981D2DD8881998169DF892B31F09F
:100F4000FE01EE0DFF1D80818F5F808391E0E91A25
:100F5000F10881E0E816F104E1F6015011090115EC
:100F60001105A1F6DF91CF911F910F91FF90EF90A6
:100F700008958091720090917300AFDD60E070E0A1
:100F8000809172009091730078DF8091720090914F
:100F900073004FDC809172009091730045DC82E613
:100FA00090E025D38AE690E022D31092A500089520
:100FB000809166008093C602809162008093C70290
:100FC00080916E008093C80280916A008093C9026C
:100FD00080917200909173001FDF8093CB0266E0D6
:100FE00086EC92E0D8C92ADC807390E00895892BC2
:100FF00019F46FE970E002C061EA70E088E093E004
:1010000068C30F931F93CF93DF9300D01F92CDB788
:10101000DEB7809166009091670095958795782F4F
:1010200080E090E021E030E065B3A901082E01C026
:10103000440F0A94EAF7871718F4642B65BB03C0C2
:101040004095462345BB01968430910569F7109180
:10105000CC02113031F514C082E690E0A5D28C01AB
:1010600080917200909173003ADEF80180A399811B
:1010700091A3482FB80180917200909173007DDD9B
:1010800082E690E03FD2892B09F072C0BE016F5F0B
:101090007F4F809172009091730044DD892BE1F6BF
:1010A00067C0123009F041C08091A500882339F152
:1010B000809172009091730096DF892B01F110925C
:1010C000A50015BB9E012E5F3F4FAE014F5F5F4FE6
:1010D000BE016D5F7F4F809172009091730067DE5B
:1010E00089818093CA0264DF8981882329F08091F5
:1010F0007200909173009DDB82E690E01CD280919B
:10110000A500811135C082E690E038D2009781F1C8
:10111000FC0140A1BC0180917200909173002BDE14
:1011200081E08093A50085BB23C0133009F582E6DA
:1011300090E024D2009759F49E012F5F3F4FA90100
:10114000B901809172009091730031DE11C0FC01F1
:1011500040A1BC01809172009091730061DE009704
:1011600021F482E690E0E7D1E2CF0B9601F7E4CFDD
:101170000F900F900F90DF91CF911F910F910895D5
:10118000EF92FF920F931F93CF93DF93CDB7DEB70C
:10119000C258D1090FB6F894DEBF0FBECDBF8C0187
:1011A000FC018181843071F138F4882309F4ABC0EB
:1011B000833009F0B7C00AC0883009F480C0893094
:1011C00009F46FC0863009F0ADC04DC0F8018281CE
:1011D0008093CC02CEDEF801228180917200909142
:1011E0007300211102C096DD01C0A7DDF8018281E4
:1011F000813009F005C080917200909173003EDC4F
:1012000080E09EC08091CC02813029F442E6E42E39
:1012100040E0F42E04C03AE6E32E30E0F32EC7019E
:101220008AD18C01009761F3FC0181A180930803AE
:10123000C70176D1892B29F48091080380688093B7
:10124000080329E033E0F80140A150E0B801C901EA
:1012500030D288E093E09093ED028093EC02A8DE18
:10126000F80180A15DC06091720070917300CE01A1
:10127000019637DEF801628170E0CE0101963DDE15
:1012800080E8FE013396A8E0B3E001900D928A95C4
:10129000E1F788E093E09093ED028093EC0280E820
:1012A0004FC0809172009091730017DC62DEA8CF6E
:1012B000A8DE8FE493EC0197F1F700C00000F8017D
:1012C0006281738161507109738362836115710555
:1012D00031F08091660090916700892B49F78091E9
:1012E000720090917300C9DDF8019383828390931B
:1012F00009038093080388E093E09093ED028093C4
:10130000EC0282E01DC0E8E0F3E0F093ED02E09330
:10131000EC0201900020E9F73197E850F3408E2F5E
:101320008F5F0EC08093CD02F801868197819093E4
:10133000CF028093CE021092D1021092D0028FEF92
:10134000CE57DF4F0FB6F894DEBF0FBECDBFDF9193
:10135000CF911F910F91FF90EF9008950F931F93DE
:10136000CF93DF93462F062F10E0C091D002D0918B
:10137000D1029E01285F3C4F50E0BC01C90199D1C8
:10138000C00FD11FD093D102C093D0028091CE0262
:101390009091CF02C817D90709F07FC08091CD0284
:1013A000823039F0853009F452C0813009F070C0C4
:1013B00017C080917200909173008FDB60910803D9
:1013C0008091720090917300663024F449E053E0FC
:1013D00014DC03C069E073E0DCDB1092CA0257C082
:1013E000C8DD68E073E0809172009091730038DA94
:1013F0001092CA02DDDD80910D038823B9F088E0E8
:1014000090E0909363008093620090936B008093D0
:101410006A0086EA90E0909369008093680086EB0A
:1014200091E0909371008093700032C080E190E071
:10143000909363008093620086EA90E09093690045
:101440008093680010926B0010926A0021C0809116
:10145000CC02813019F48AE690E002C082E690E086
:10146000A3D0EC010091D0021091D102980121503B
:10147000310989E093E0A901BC01CE011AD1809124
:10148000080389A3015008A38FEF8093CA0290DD5F
:1014900080E090E0ACDD81E001C080E0DF91CF91A1
:1014A0001F910F91089581B38C6081BB2FE382E47B
:1014B0009FE0215080409040E1F700C0000082B3DF
:1014C000837F82BB81B3837F81BB089584B38F60A8
:1014D00084BB85B3807F85BBE6DF15BA0895809114
:1014E000720090917300B4DA809172009091730051
:1014F000F4DA3FDD89C873D784DD8091DD0284FD95
:1015000057CD089521E030E0FC0144815581808170
:1015100091814817590711F020E030E0C901089582
:1015200021E030E0FC0184819581892B11F020E0DD
:1015300030E0C9010895CF93DF93FC01C481D581C8
:101540002097B1F08281938122E2289FA001299FF8
:10155000500D112426813781240F351F019660819B
:10156000718180D0938382832197D583C48302C005
:1015700020E030E0C901DF91CF910895FC01848122
:101580009581892B69F02281338142E2429FC0011B
:10159000439F900D112426813781280F391F02C0E7
:1015A00020E030E0C9010895CF93DF93EC01EC8196
:1015B000FD8168817981E617F70719F4CE01BBDF59
:1015C000F6CF8A819B818E0F9F1F4CD022E2289FED
:1015D000A001299F500D11242E813F81240F351F1A
:1015E0003196FD83EC83C901DF91CF910895FC0111
:1015F000158214820895089506C0FC012191CF013F
:101600002FB9779BFECF6150C0F708952FEF07C029
:101610002FB9779BFECF3FB1FC013193CF016150D1
:10162000B8F70895892B11F0C29A0895C2980895C9
:10163000892B11F0C19A0895C198089588E10FB6D9
:10164000F89481BD11BC0FBEBA9AB99ABC9887B301
:101650008C6287BB88B38C6388BB80E58DB981E0E1
:101660008EB9089597FB072E16F4009406D077FDE7
:1016700008D00BD007FC05D03EF4909581959F4F84
:101680000895709561957F4F0895AA1BBB1B51E18A
:1016900007C0AA1FBB1FA617B70710F0A61BB70BE2
:1016A000881F991F5A95A9F780959095BC01CD0187
:1016B0000895FB01DC0102C001900D9241505040A1
:1016C000D8F70895DC0101C06D9341505040E0F718
:1016D0000895FB01DC0101900D920020E1F70895CF
:0616E00021C5F894FFCFC4
:1016E6005AFF000000000000A600000000000000F5
:1016F600A6007400120B180BFB0AFC0A060B00006E
:10170600000000000000000000000000000A0B0CB2
:101716000D0E0F1112131415160102040810204F96
:04172600004500007A
:00000001FF
