:107000000C9434380C9463380C9463380C946338C3
:107010000C9463380C9463380C9463380C94633884
:107020000C9463380C9463380C9463380C94633874
:107030000C9463380C9463380C9463380C94633864
:107040000C9463380C9463380C9463380C94633854
:107050000C9463380C9463380C9463380C94633844
:107060000C9463380C94633811241FBECFEFD8E022
:10707000DEBFCDBF11E0A0E0B1E0EAEDFEE702C067
:1070800005900D92AE36B107D9F711E0AEE6B1E04A
:1070900001C01D92AB3FB107E1F7F8940E94653E35
:1070A0000E946A3E0E94C03E0E94D63E0E94DE3E82
:1070B00078940E94BB3C0E94DF3C0E946F3E0E947D
:1070C0006E380C94693F0C940038FA01DC0102C060
:1070D00005900D9221503040D8F7089580E090E05F
:1070E0000895E0913601F09137010190F081E02D93
:1070F00090E009950895E0913601F0913701028002
:10710000F381E02D90E009950895E0913601F0912A
:1071100037010680F781E02D09950895E091360149
:10712000F09137010084F185E02D09950895A2E0E2
:10713000B0E0EDE9F8E30C94F93E89838B0180E03F
:107140004A830E94713861E0CE0101960E94853821
:107150004A81442321F0642FC8010E948E3881E0C7
:107160000E9471382296E4E00C94153FA2E0B0E052
:10717000ECEBF8E30C94F93E89838B0180E04A83C1
:107180000E94713861E0CE0101960E9485384A81E3
:10719000442321F0642FC8010E94853881E00E94B9
:1071A00071382296E4E00C94153F862FBA018F7156
:1071B000422F80620E94B6380895A1E0B0E0E3EE6D
:1071C000F8E30C94FB3E862F49838F7141E0BE01AA
:1071D0006F5F7F4F80620E94B6382196E2E00C9488
:1071E000173FA1E0B0E0E7EFF8E30C94FB3E862FF9
:1071F00041E0BE016F5F7F4F8F710E949738898198
:107200002196E2E00C94173FA1E2B0E0EAE0F9E356
:107210000C94F73EFC018B0180EA89A3E384F42EF1
:10722000E41608F4FE2C828583FD02C0EF1801C02D
:10723000E12C4E2D50E060E070E0CE0101960E94FE
:107240002B3F80E00E94713861E0CE0181960E9460
:1072500085386F2DC8010E9485386E2DCE010196AC
:107260000E94853881E00E947138A196E6E00C9476
:10727000133FA1E2B0E0EFE3F9E30C94F73EFC0129
:107280008B0181E689A36385F42E641708F4F62E3A
:10729000828583FD03C0E62EEF1801C0E12C80E05B
:1072A0000E94713861E0CE0181960E9485386F2D71
:1072B000C8010E948E386E2DCE0101960E948E3834
:1072C00081E00E947138A196E6E00C94133F40E003
:1072D00060E070E082EE0E949738089540E060E040
:1072E00070E081EE0E9497380895A1E0B0E0EBE7EE
:1072F000F9E30C94FB3E80E00E94713861E0CE011E
:1073000001960E948E3881E00E9471388981219611
:10731000E2E00C94173FAAE0B0E0E1E9F9E30C9455
:10732000F53E8C017B0180E00E947B38F701808173
:10733000803808F08FE78A8741E0BE01665F7F4FA3
:1073400085E20E94B638F7018481F0E18F9FC00189
:107350001124F70193819F70982B998741E0BE011A
:10736000675F7F4F84E20E94B6386DE1C8010E94DA
:10737000F138C82E6CE1C8010E94F138F70127816D
:10738000213208F020E2F8012387F7019681F80105
:107390002285992341F09C2D9460286022874FE339
:1073A000D42ED82A08C09C2D9B7F277FF8012287E6
:1073B00030ECD32ED822F7012581F80182852223D3
:1073C00041F08061828726E0C22EC92AF3E0DF2ADD
:1073D00006C08F7EF80182878DEFC82EC922C8862D
:1073E00041E0BE01685F7F4F8DE30E94B638CC203C
:1073F000F1F06DE1C8010E94F138811175C080E59E
:10740000898383E78A8380E00E94713862E0CE013D
:1074100001960E94853881E00E947138CF8241E058
:10742000BE01695F7F4F8DE30E94B6385DC0DE828A
:1074300041E0BE016A5F7F4F8CE30E94B63866E090
:10744000C8010E94F138F8019285292F2160228716
:10745000877DF7012281223029F49E7FF8019287EF
:10746000806203C0213009F48860897FF70191812F
:10747000933009F40AC0923011F4846007C091304F
:1074800011F4826003C0943009F486608D8341E07A
:10749000BE016B5F7F4F86E20E94B63860E0C80194
:1074A0000E94F138837FF7019085913011F4886054
:1074B00001C08C608C8341E0BE016C5F7F4F80E235
:1074C0000E94B638F70181858F738B8341E0BE013E
:1074D0006D5F7F4F81E20E94B638C8010E94673914
:1074E000C8010E946E3905C06DE1C8010E94F138E3
:1074F0009ECF2A96E8E00C94113FFC0181E0828740
:1075000080E28387158616861786108A118A14866C
:1075100080E00E947B3881E00E94713880E29EE426
:107520000197F1F70895A2E0B0E0E9E9FAE30C94DD
:10753000F93E8C0160E00E94F13883608A8341E06B
:10754000BE016E5F7F4F80E20E94B63880E789837C
:1075500041E0BE016F5F7F4F87E20E94B638B801FD
:10756000635F7F4F45E08AE20E94B63881E00E9467
:107570007B3888E092E00197F1F72296E4E00C94E2
:10758000153FA1E0B0E0E7ECFAE30C94F93E8C0182
:1075900080E00E947B3860E0C8010E94F1388E7F55
:1075A000898341E0BE016F5F7F4F80E20E94B63861
:1075B0000E5E1F4F45E0B8018AE20E94B63845E0F2
:1075C000B80180E30E94B6382196E4E00C94153FA0
:1075D000A2E0B0E0EEEEFAE30C94F93E8B010E94DB
:1075E0007539282F26952770273081F00115110550
:1075F00011F0F801208380E4898341E0BE016F5FD0
:107600007F4F87E22A830E94B6382A8181E090E08A
:10761000273011F480E090E02296E4E00C94153FCE
:10762000CF93DF93EC010E94393967E1CE010E94CC
:10763000F138817090E0DF91CF910895A1E0B0E042
:10764000E4E2FBE30C94F73E7C018B0145E08AE227
:107650000E94B63845E0B80180E30E94B638F801D0
:1076600020E030E08191D701A20FB31F52968C9396
:107670002F5F3F4F25303105A9F7F7018385813210
:1076800008F080E2898341E0BE016F5F7F4F81E3B4
:107690000E94B6382196E6E00C94133FA3E1B0E0D7
:1076A000E4E5FBE30C94F73E8C01E62E86E0E1E591
:1076B000F1E0DE011D9601900D928A95E1F786E0DA
:1076C000E7E5F1E0DE01179601900D928A95E1F76A
:1076D00086E0EDE5F1E0DE01119601900D928A95CC
:1076E000E1F7611112C0FA0180E090E02191D80128
:1076F000A80FB91F1D962C93019685309105B1F7FF
:10770000FE01EE0DF11D25E00AC086E0861738F176
:10771000A1E06A17A9F3FE01E60FF11D21E06585DE
:10772000C8010E94D538F12CFE01EE0DFF1DD801D5
:107730001B964C916781C8010E94DD3862E0C80148
:107740000E94F138FE01EE0DFF1D9181982B9B8B5D
:1077500041E0BE016D5E7F4F82E20E94B6386396C3
:10776000E6E00C94133FA1E0B0E0E9EBFBE30C94FE
:10777000F93E8C01198241E0BE016F5F7F4F80E6C8
:107780000E9497388981813220F0C8010E946739B0
:1077900080E02196E4E00C94153FA2E0B0E0E3ED38
:1077A000FBE30C94F53E8B017A0169010E94753967
:1077B000982F80E7898341E0BE016F5F7F4F87E2AA
:1077C0009A830E94B6389A81892F8072F80180834B
:1077D000892F8071F70180839074F601908322963F
:1077E000E8E00C94113F67E10E94F1388071089540
:1077F000A2E0B0E0EEEFFBE30C94F73E8C017B01DE
:1078000067E14A830E94F1384A8185FF0CC080E11C
:10781000898341E0BE016F5F7F4F87E20E94B638E7
:1078200085EF9FEF09C0B701C8010E94043981E0CC
:107830000E947B3880E090E02296E6E00C94133FB3
:10784000A1E0B0E0E6E2FCE30C94F53E7C018B01A4
:1078500081E00E947B3860E4C62E6CE9D62E0BC016
:107860009E012F5F3F4FA901B901C7010E94CD3B87
:10787000C6010197F1F7C7010E94F33B811103C0D4
:107880000150110969F79E012F5F3F4FA901B9010E
:10789000C7010E94CD3B80E00E947B38C801219641
:1078A000E8E00C94113F089590910F01992359F04D
:1078B000811120C080913601909137010E94C13A18
:1078C00010920F0108958823A9F06AEF70E080916B
:1078D0003601909137010E94203C892B11F40E94BF
:1078E000B43E80913601909137010E94933A81E035
:1078F00080930F010895EF92FF920F931F93CF9300
:10790000DF93EC01E62E80E00E94543CFF24FA94C1
:10791000E39400E911E04E2DBE0180913601909173
:1079200037010E94F83B892B59F02EEB30E0F8012B
:107930003197F1F721503109D1F7FA9461F702C07C
:10794000F11002C00E94B43ECDB7DEB7E6E00C9461
:10795000133F20916F0130917001F901EE0FFF1F6D
:10796000EB50FE4F918380832F5F3F4F3093700128
:1079700020936F01089580913601909137010E9404
:107980007D3A60E071E080913601909137010E946C
:107990008B3980913601909137010E94533C4AE027
:1079A00051E060E080913601909137010E944E3B9A
:1079B00080913601909137010E94933A0895A1E297
:1079C000B0E0E5EEFCE30C94F33EBE016F5D7F4F4B
:1079D00080913601909137010E94E83A892B09F491
:1079E000C3C080913601909137010E94B33B482F6C
:1079F0008E010F5F1F4FB8018091360190913701C2
:107A00000E94103B29812F7009F048C07E0182E05E
:107A1000E80EF11CB70180913601909137010E9468
:107A20001E3B80916F018A831B824CE150E063E62C
:107A300071E0CE0104960E94323F18A28091360177
:107A4000909137010E9467396FE1C8010E947B3C29
:107A500081E080936E01D12C8FE0C82E12C0EE0F12
:107A6000FF1FEB50FE4F0190F081E02DD7018C2DD0
:107A700001900D928A95E1F76FE0C8010E947B3C6E
:107A8000D394ED2DF0E080916F0190917001E81793
:107A9000F9072CF381E00E94543C66C0EA81F0E0D3
:107AA00080916F0190917001E817F9070CF05CC0AC
:107AB0002330D1F5CB80DC80ED80FE801B821C82E0
:107AC0001D821E82EA81F0E0EE0FFF1FEB50FE4F99
:107AD000808191814B815C816D817E81DC011F966B
:107AE000ED91FC9150979E01295F3F4F09955C01F4
:107AF000682F6B5FC8010E947B3CA501662757FD7C
:107B00006095762F8B819C81AD81BE81480F591F76
:107B10006A1F7B1F4B835C836D837E834C155D05E1
:107B20006E057F0578F2B6CF2430A1F4EE0FFF1F6B
:107B3000EB50FE4F808191814B815C816D817E8114
:107B4000DC015196ED91FC9152979E01295F3F4FC8
:107B500009950AC0223041F4EE0FFF1FEB50FE4F93
:107B6000808191810E945B3EA196EAE00C940F3FD8
:107B7000CB01BA0148E150E0C9010E94513F08958C
:107B8000CF93DF93EC01CB01BA0149815A8164178D
:107B9000750740F448E150E0C9010E94413F8881E7
:107BA00090E002C080E090E0DF91CF910895CF9205
:107BB000DF92EF92FF92CF93DF93EC016A017B019A
:107BC0004F77552766277727CA018D589E4F4881E2
:107BD00050E0B9010E94223F8881A7019601280F39
:107BE000311D411D511DDA01C9018F779927AA273F
:107BF000BB27892B8A2B8B2B09F039C030E8C32295
:107C00005FB7F894F999FECF83E0F60180935700AF
:107C1000E89507B600FCFDCF4091730180E090E04D
:107C200061E0DC01AD58BE4FFC01EC0DFD1D11966D
:107C30002C91119730E0322F2227240F311D09019A
:107C400060935700E895112412964C910296803863
:107C5000910539F785E0F60180935700E89507B65E
:107C600000FCFDCF81E180935700E8955FBFDF9175
:107C7000CF91FF90EF90DF90CF9008950F931F93D7
:107C8000CF93DF93EC01C90109811A812B813C81DB
:107C9000401751076207730738F4288130E00E94CB
:107CA0006538888190E002C080E090E0DF91CF915C
:107CB0001F910F910895F89481E180935700E89502
:107CC000E0917101F0917201099583E291E00E94C7
:107CD000A93C089580E191E00E94A93C089580911B
:107CE0006E0181111BC084EF91E020E931E0F901C0
:107CF0003197F1F70197D9F78091F3019091F40151
:107D00009C012F5F3F4F3093F4012093F3018536A0
:107D1000910524F080E090E00E945B3E0895089574
:107D200007C0FC012191CF012EBD0DB407FEFDCF90
:107D30006150B8F708952FEF08C02EBD0DB407FEAF
:107D4000FDCF3EB5FC013193CF016150B0F70895EE
:107D5000892B11F0439A089543980895892B11F0C7
:107D6000429A08954298089529E088E190E00FB67C
:107D7000F894A895809360000FBE20936000FFCF19
:107D800088E10FB6F89480936000109260000FBEF7
:107D90003B9A3A9A249884B18C6284B985B18C63F9
:107DA00085B980E58CBD81E08DBD0895419A3199FA
:107DB00004C080E090E00E945B3E089584B18E6034
:107DC00084B985B1817F85B98AB188668AB98AB15B
:107DD00087798AB908952F923F924F925F926F925E
:107DE0007F928F929F92AF92BF92CF92DF92EF924B
:107DF000FF920F931F93CF93DF93CDB7DEB7CA1BCC
:107E0000DB0B0FB6F894DEBF0FBECDBF09942A88F6
:107E1000398848885F846E847D848C849B84AA849E
:107E2000B984C884DF80EE80FD800C811B81AA812B
:107E3000B981CE0FD11D0FB6F894DEBF0FBECDBFF6
:107E4000ED010895FB01DC0102C001900D9241504B
:107E50005040D8F70895DC0101C06D934150504067
:107E6000E0F70895FB01DC014150504048F00190DB
:107E70000D920020C9F701C01D9241505040E0F71B
:107E80000895DC01CB01FC01F999FECF06C0F2BDDB
:107E9000E1BDF89A319600B40D9241505040B8F7C8
:107EA0000895DC01CB0103C02D910E945C3F41503D
:107EB0005040D0F70895262FF999FECF1FBA92BDF2
:107EC00081BD20BD0FB6F894FA9AF99A0FBE0196BB
:0A7ED00008950C945B38F894FFCF7E
:107EDA000D03010F0F00012002FFB00B10ADED01E1
:107EEA0010007000008000666C6173680000003E3C
:107EFA003ED73D18000400000100656570726F6D81
:107F0A000000C03DB83D3801A83EAE3E8F3E903ECF
:107F1A009B3E00000000000000000000000000007E
:107F2A00000A0B0C0D0E0F11121314151601020480
:0E7F3A0008102076696B6F2D77697370000058
:040000030000700089
:00000001FF
