:107000000C9434380C9461380C9461380C946138C9
:107010000C9461380C9461380C9461380C9461388C
:107020000C9461380C9461380C9461380C9461387C
:107030000C9461380C9461380C9461380C9461386C
:107040000C9461380C9461380C9461380C9461385C
:107050000C9461380C9461380C9461380C9461384C
:107060000C9461380C94613811241FBECFEFD8E026
:10707000DEBFCDBF11E0A0E0B1E0E0E4FEE702C07A
:1070800005900D92AE36B107D9F711E0AEE6B1E04A
:1070900001C01D92AB3FB107E1F7F8940E9494380C
:1070A0000E94643E0E94693E0E946E3E78940E9457
:1070B000D53C0E94F93C0E947A3E0E946C380C94A8
:1070C0001C3F0C940038FA01DC0102C005900D92BF
:1070D00021503040D8F7089580E090E00895089559
:1070E00007C0FC012191CF012EBD0DB407FEFDCFDD
:1070F0006150B8F708952FEF08C02EBD0DB407FEFC
:10710000FDCF3EB5FC013193CF016150B0F708953A
:10711000892B11F0299A089529980895892B11F047
:107120002A9A08952A980895219A229A249884B137
:107130008C6284B985B18C6385B980E58CBD81E0B2
:107140008DBD0895E0910001F09101010190F08161
:10715000E02D90E009950895E0910001F091010182
:107160000280F381E02D90E009950895E0910001FF
:10717000F09101010680F781E02D09950895E091D5
:107180000001F09101010084F185E02D0995089539
:10719000A2E0B0E0EEECF8E30C94B53E89838B01FD
:1071A00080E04A830E94A23861E0CE0101960E94ED
:1071B000B6384A81442321F0642FC8010E94BF38A9
:1071C00081E00E94A2382296E4E00C94D13EA2E035
:1071D000B0E0EDEEF8E30C94B53E89838B0180E0DE
:1071E0004A830E94A23861E0CE0101960E94B6381F
:1071F0004A81442321F0642FC8010E94B63881E0FF
:107200000E94A2382296E4E00C94D13E862FBA0167
:107210008F71422F80620E94E7380895A1E0B0E0AC
:10722000E4E1F9E30C94B73E862F49838F7141E086
:10723000BE016F5F7F4F80620E94E7382196E2E0D7
:107240000C94D33EA1E0B0E0E8E2F9E30C94B73E41
:10725000862F41E0BE016F5F7F4F8F710E94C8385B
:1072600089812196E2E00C94D33EA1E2B0E0EBE309
:10727000F9E30C94B33EFC018B0180EA89A3E3841B
:10728000F42EE41608F4FE2C828583FD02C0EF186C
:1072900001C0E12C4E2D50E060E070E0CE0101967F
:1072A0000E94DE3E80E00E94A23861E0CE0181961D
:1072B0000E94B6386F2DC8010E94B6386E2DCE01DF
:1072C00001960E94B63881E00E94A238A196E6E0BD
:1072D0000C94CF3EA1E2B0E0E0E7F9E30C94B33EBA
:1072E000FC018B0181E689A36385F42E641708F401
:1072F000F62E828583FD03C0E62EEF1801C0E12C37
:1073000080E00E94A23861E0CE0181960E94B638EA
:107310006F2DC8010E94BF386E2DCE0101960E94CC
:10732000BF3881E00E94A238A196E6E00C94CF3EDF
:1073300040E060E070E082EE0E94C838089540E0CE
:1073400060E070E081EE0E94C8380895A1E0B0E0EE
:10735000ECEAF9E30C94B73E80E00E94A23861E0C9
:10736000CE0101960E94BF3881E00E94A238898137
:107370002196E2E00C94D33EAAE0B0E0E2ECF9E31F
:107380000C94B13E8C017B0180E00E94AC38F70187
:107390008081803808F08FE78A8741E0BE01665F10
:1073A0007F4F85E20E94E738F7018481F0E18F9FEB
:1073B000C0011124F70193819F70982B998741E0B8
:1073C000BE01675F7F4F84E20E94E7386DE1C8012C
:1073D0000E942239C82E6CE1C8010E942239F701AF
:1073E0002781213208F020E2F8012387F7019681F6
:1073F000F8012285992341F09C2D94602860228712
:107400004FE3D42ED82A08C09C2D9B7F277FF801FC
:10741000228730ECD32ED822F7012581F80182850E
:10742000222341F08061828726E0C22EC92AF3E040
:10743000DF2A06C08F7EF80182878DEFC82EC92211
:10744000C88641E0BE01685F7F4F8DE30E94E73848
:10745000CC20F1F06DE1C8010E942239811175C084
:1074600080E5898383E78A8380E00E94A23862E016
:10747000CE0101960E94B63881E00E94A238CF82E8
:1074800041E0BE01695F7F4F8DE30E94E7385DC038
:10749000DE8241E0BE016A5F7F4F8CE30E94E738E5
:1074A00066E0C8010E942239F8019285292F2160E7
:1074B0002287877DF7012281223029F49E7FF801FF
:1074C0009287806203C0213009F48860897FF701C8
:1074D0009181933009F40AC0923011F4846007C09E
:1074E000913011F4826003C0943009F486608D837A
:1074F00041E0BE016B5F7F4F86E20E94E73860E0AB
:10750000C8010E942239837FF7019085913011F4E0
:10751000886001C08C608C8341E0BE016C5F7F4F4E
:1075200080E20E94E738F70181858F738B8341E009
:10753000BE016D5F7F4F81E20E94E738C8010E9463
:107540009839C8010E949F3905C06DE1C8010E94A9
:1075500022399ECF2A96E8E00C94CD3EFC0181E0D2
:10756000828780E28387158616861786108A118A9D
:10757000148680E00E94AC3881E00E94A23880E14D
:1075800097E20197F1F70895A2E0B0E0EAECFAE3A0
:107590000C94B53E8C0160E00E94223983608A839E
:1075A00041E0BE016E5F7F4F80E20E94E73880E7D6
:1075B000898341E0BE016F5F7F4F87E20E94E73819
:1075C000B801635F7F4F45E08AE20E94E73881E0BF
:1075D0000E94AC3884E091E00197F1F72296E4E054
:1075E0000C94D13EA1E0B0E0E8EFFAE30C94B53E94
:1075F0008C0180E00E94AC3860E0C8010E94223912
:107600008E7F898341E0BE016F5F7F4F80E20E94E1
:10761000E7380E5E1F4F45E0B8018AE20E94E73866
:1076200045E0B80180E30E94E7382196E4E00C943D
:10763000D13EA2E0B0E0EFE1FBE30C94B53E8B015C
:107640000E94A639282F26952770273081F0011532
:10765000110511F0F801208380E4898341E0BE0127
:107660006F5F7F4F87E22A830E94E7382A8181E09B
:1076700090E0273011F480E090E02296E4E00C9452
:10768000D13ECF93DF93EC010E946A3967E1CE01CE
:107690000E942239817090E0DF91CF910895A1E09E
:1076A000B0E0E5E5FBE30C94B33E7C018B0145E0E3
:1076B0008AE20E94E73845E0B80180E30E94E7389B
:1076C000F80120E030E08191D701A20FB31F52965C
:1076D0008C932F5F3F4F25303105A9F7F701838544
:1076E000813208F080E2898341E0BE016F5F7F4F05
:1076F00081E30E94E7382196E6E00C94CF3EA3E1B7
:10770000B0E0E5E8FBE30C94B33E8C01E62E86E0A6
:10771000E1E5F1E0DE011D9601900D928A95E1F719
:1077200086E0E7E5F1E0DE01179601900D928A957B
:10773000E1F786E0EDE5F1E0DE01119601900D92B2
:107740008A95E1F7611112C0FA0180E090E0219181
:10775000D801A80FB91F1D962C930196853091056D
:10776000B1F7FE01EE0DF11D25E00AC086E0861797
:1077700038F1A1E06A17A9F3FE01E60FF11D21E03F
:107780006585C8010E940639F12CFE01EE0DFF1D32
:10779000D8011B964C916781C8010E940E3962E0A6
:1077A000C8010E942239FE01EE0DFF1D9181982B28
:1077B0009B8B41E0BE016D5E7F4F82E20E94E73805
:1077C0006396E6E00C94CF3EA1E0B0E0EAEEFBE386
:1077D0000C94B53E8C01198241E0BE016F5F7F4F72
:1077E00080E60E94C8388981813220F0C8010E9459
:1077F000983980E02196E4E00C94D13EA2E0B0E01C
:10780000E4E0FCE30C94B13E8B017A0169010E9433
:10781000A639982F80E7898341E0BE016F5F7F4FD3
:1078200087E29A830E94E7389A81892F8072F80153
:107830008083892F8071F70180839074F601908393
:107840002296E8E00C94CD3E67E10E9422398071D7
:107850000895A2E0B0E0EFE2FCE30C94B33E8C01AB
:107860007B0167E14A830E9422394A8185FF0CC06F
:1078700080E1898341E0BE016F5F7F4F87E20E9414
:10788000E73885EF9FEF09C0B701C8010E9435397D
:1078900081E00E94AC3880E090E02296E6E00C9413
:1078A000CF3EA1E0B0E0E7E5FCE30C94B13E7C0103
:1078B0008B0181E00E94AC3860E2C62E6EE4D62EC9
:1078C0000BC09E012F5F3F4FA901B901C7010E9464
:1078D000FE3BC6010197F1F7C7010E94243C8111CC
:1078E00003C00150110969F79E012F5F3F4FA901A5
:1078F000B901C7010E94FE3B80E00E94AC38C8017C
:107900002196E8E00C94CD3E089590912A019923A8
:1079100059F0811120C080910001909101010E94D5
:10792000F23A10922A0108958823A9F06AEF70E0D4
:1079300080910001909101010E94513C892B11F42A
:107940000E949B3E80910001909101010E94C43AE7
:1079500081E080932A0108951F93CF93DF93EC0178
:10796000162F80E00E94853C1F5F412FBE01809151
:107970000001909101010E94293C892BB1F7DF9110
:10798000CF911F91089520916F0130917001F901FD
:10799000EE0FFF1FEB50FE4F918380832F5F3F4F11
:1079A0003093700120936F010895809100019091B0
:1079B00001010E94AE3A6BE171E08091000190916B
:1079C00001010E94BC3980910001909101010E9447
:1079D000843C45E251E060E080910001909101011A
:1079E0000E947F3B80910001909101010E94C43A66
:1079F0000895A1E2B0E0EFEFFCE30C94AF3EBE01CE
:107A00006F5D7F4F80910001909101010E94193BB1
:107A1000892B09F4C3C080910001909101010E945B
:107A2000E43B482F8E010F5F1F4FB801809100018A
:107A3000909101010E94413B29812F7009F048C0BB
:107A40007E0182E0E80EF11CB70180910001909167
:107A500001010E944F3B80916F018A831B824CE1A0
:107A600050E063E671E0CE0104960E94E53E18A264
:107A700080910001909101010E9498396FE1C80145
:107A80000E94AC3C81E080936E01D12C8FE0C82E27
:107A900012C0EE0FFF1FEB50FE4F0190F081E02D62
:107AA000D7018C2D01900D928A95E1F76FE0C80106
:107AB0000E94AC3CD394ED2DF0E080916F01909149
:107AC0007001E817F9072CF381E00E94853C66C03D
:107AD000EA81F0E080916F0190917001E817F90759
:107AE0000CF05CC02330D1F5CB80DC80ED80FE80D3
:107AF0001B821C821D821E82EA81F0E0EE0FFF1FB6
:107B0000EB50FE4F808191814B815C816D817E8144
:107B1000DC011F96ED91FC9150979E01295F3F4F2C
:107B200009955C01682F6B5FC8010E94AC3CA50100
:107B3000662757FD6095762F8B819C81AD81BE8134
:107B4000480F591F6A1F7B1F4B835C836D837E83A5
:107B50004C155D056E057F0578F2B6CF2430A1F493
:107B6000EE0FFF1FEB50FE4F808191814B815C81B6
:107B70006D817E81DC015196ED91FC9152979E01C1
:107B8000295F3F4F09950AC0223041F4EE0FFF1FD5
:107B9000EB50FE4F808191810E94543EA196EAE015
:107BA0000C94CB3EC901411520E7520761057105D0
:107BB00038F420E130E00E94633880E190E00895DD
:107BC00080E090E00895CB01BA0140E150E0C901A6
:107BD0000E94043F0895CB01BA01611544E0740787
:107BE00040F440E150E0C9010E94F43E80E190E0A1
:107BF000089580E090E00895CF93DB01CA018F776C
:107C00009927AA27BB27DC01AD58BE4FC0E1F90177
:107C100001900D92CA95E1F7DB01CA014096A11DC2
:107C2000B11D8F779927AA27BB27892B8A2B8B2BEE
:107C300009F038C04078CFB7F894F999FECF83E0C7
:107C4000FA0180935700E89507B600FCFDCF6091DC
:107C5000730180E090E071E0DC01AD58BE4FFC01A3
:107C6000E40FF51F11962C91119730E0322F222747
:107C7000260F311D090170935700E89511241296C3
:107C80006C9102968038910539F785E0FA0180936E
:107C90005700E89507B600FCFDCF81E180935700BF
:107CA000E895CFBFCF910895809100019091010197
:107CB0000E94F23AF89481E180935700E895E091B0
:107CC0007101F091720109958EE391E00E94C33C2D
:107CD00008958BE291E00E94C33C089529E288E177
:107CE00090E00FB6F894A895809360000FBE2093A3
:107CF00060000895A89580916E0181111BC084EFEA
:107D000091E028EC30E0F9013197F1F70197D9F7CC
:107D10008091F3019091F4019C012F5F3F4F3093CC
:107D2000F4012093F3018536910524F080E090E082
:107D30000E94543E089529E088E190E00FB6F8943F
:107D4000A895809360000FBE20936000FFCF2F9214
:107D50003F924F925F926F927F928F929F92AF92DB
:107D6000BF92CF92DF92EF92FF920F931F93CF9328
:107D7000DF93CDB7DEB7CA1BDB0B0FB6F894DEBFBF
:107D80000FBECDBF09942A88398848885F846E84E5
:107D90007D848C849B84AA84B984C884DF80EE802F
:107DA000FD800C811B81AA81B981CE0FD11D0FB638
:107DB000F894DEBF0FBECDBFED010895DC0101C018
:107DC0006D9341505040E0F70895FB01DC014150B4
:107DD000504048F001900D920020C9F701C01D925B
:107DE00041505040E0F70895DC01CB01FC01F999C6
:107DF000FECF06C0F2BDE1BDF89A319600B40D92F7
:107E000041505040B8F70895DC01CB0103C02D91DB
:107E10000E940F3F41505040D0F70895262FF99906
:107E2000FECF1FBA92BD81BD20BD0FB6F894FA9A5D
:107E3000F99A0FBE019608950C945938F894FFCF23
:107E4000020188388E386F3870387B3800000000A7
:107E500000000000000000000000000D03010F0FF3
:107E600000012002FFB00B10ADED0110007000000A
:107E70008000666C617368000000D23DFC3D10001C
:107E80000400000100656570726F6D0000EB3DE35A
:107E90003D0A0B0C0D0E0F111213141516010204DE
:0E7EA00008102072662D6F75746C65740000FA
:040000030000700089
:00000001FF
