:107000000C9434380C9461380C9461380C946138C9
:107010000C9461380C9461380C9461380C9461388C
:107020000C9461380C9461380C9461380C9461387C
:107030000C9461380C9461380C9461380C9461386C
:107040000C9461380C9461380C9461380C9461385C
:107050000C9461380C9461380C9461380C9461384C
:107060000C9461380C94613811241FBECFEFD8E026
:10707000DEBFCDBF11E0A0E0B1E0ECEBFEE702C067
:1070800005900D92AA36B107D9F711E0AAE6B1E052
:1070900001C01D92A73FB107E1F7F8940E94633E3B
:1070A0000E94683E0E94BE3E0E94D43E78940E9498
:1070B000B93C0E94DD3C0E946D3E0E946C380C94ED
:1070C0005A3F0C940038FA01DC0102C005900D9281
:1070D00021503040D8F7089580E090E00895E09185
:1070E0003601F09137010190F081E02D90E0099593
:1070F0000895E0913601F09137010280F381E02D8F
:1071000090E009950895E0913601F09137010680ED
:10711000F781E02D09950895E0913601F09137014E
:107120000084F185E02D09950895A2E0B0E0EBE937
:10713000F8E30C94EA3E89838B0180E04A830E9445
:107140006F3861E0CE0101960E9483384A81442362
:1071500021F0642FC8010E948C3881E00E946F38B2
:107160002296E4E00C94063FA2E0B0E0EAEBF8E3FC
:107170000C94EA3E89838B0180E04A830E946F3839
:1071800061E0CE0101960E9483384A81442321F0B8
:10719000642FC8010E94833881E00E946F382296D4
:1071A000E4E00C94063F862FBA018F71422F806273
:1071B0000E94B4380895A1E0B0E0E1EEF8E30C9449
:1071C000EC3E862F49838F7141E0BE016F5F7F4F98
:1071D00080620E94B4382196E2E00C94083FA1E05E
:1071E000B0E0E5EFF8E30C94EC3E862F41E0BE0101
:1071F0006F5F7F4F8F710E94953889812196E2E001
:107200000C94083FA1E2B0E0E8E0F9E30C94E83E1A
:10721000FC018B0180EA89A3E384F42EE41608F4D0
:10722000FE2C828583FD02C0EF1801C0E12C4E2D9B
:1072300050E060E070E0CE0101960E941C3F80E0CB
:107240000E946F3861E0CE0181960E9483386F2DD5
:10725000C8010E9483386E2DCE0101960E948338AA
:1072600081E00E946F38A196E6E00C94043FA1E211
:10727000B0E0EDE3F9E30C94E83EFC018B0181E61C
:1072800089A36385F42E641708F4F62E828583FDA6
:1072900003C0E62EEF1801C0E12C80E00E946F3899
:1072A00061E0CE0181960E9483386F2DC8010E9453
:1072B0008C386E2DCE0101960E948C3881E00E94A0
:1072C0006F38A196E6E00C94043F40E060E070E087
:1072D00082EE0E949538089540E060E070E081EE13
:1072E0000E9495380895A1E0B0E0E9E7F9E30C9435
:1072F000EC3E80E00E946F3861E0CE0101960E9472
:107300008C3881E00E946F3889812196E2E00C94EC
:10731000083FAAE0B0E0EFE8F9E30C94E63E8C0108
:107320007B0180E00E947938F7018081803808F085
:107330008FE78A8741E0BE01665F7F4F85E20E944A
:10734000B438F7018481F0E18F9FC0011124F70167
:1073500093819F70982B998741E0BE01675F7F4FB3
:1073600084E20E94B4386DE1C8010E94EF38C82E53
:107370006CE1C8010E94EF38F7012781213208F043
:1073800020E2F8012387F7019681F80122859923ED
:1073900041F09C2D9460286022874FE3D42ED82A98
:1073A00008C09C2D9B7F277FF801228730ECD32ECD
:1073B000D822F7012581F8018285222341F08061DE
:1073C000828726E0C22EC92AF3E0DF2A06C08F7E1C
:1073D000F80182878DEFC82EC922C88641E0BE0120
:1073E000685F7F4F8DE30E94B438CC20F1F06DE1EF
:1073F000C8010E94EF38811175C080E5898383E759
:107400008A8380E00E946F3862E0CE0101960E947C
:10741000833881E00E946F38CF8241E0BE01695F0E
:107420007F4F8DE30E94B4385DC0DE8241E0BE0133
:107430006A5F7F4F8CE30E94B43866E0C8010E9407
:10744000EF38F8019285292F21602287877DF70187
:107450002281223029F49E7FF8019287806203C046
:10746000213009F48860897FF7019181933009F414
:107470000AC0923011F4846007C0913011F4826028
:1074800003C0943009F486608D8341E0BE016B5FD8
:107490007F4F86E20E94B43860E0C8010E94EF3856
:1074A000837FF7019085913011F4886001C08C6072
:1074B0008C8341E0BE016C5F7F4F80E20E94B43854
:1074C000F70181858F738B8341E0BE016D5F7F4F34
:1074D00081E20E94B438C8010E946539C8010E9447
:1074E0006C3905C06DE1C8010E94EF389ECF2A9625
:1074F000E8E00C94023FFC0181E0828780E2838710
:10750000158616861786108A118A148680E00E94D6
:10751000793881E00E946F3880E29EE40197F1F7AC
:107520000895A2E0B0E0E7E9FAE30C94EA3E8C01AA
:1075300060E00E94EF3883608A8341E0BE016E5FA5
:107540007F4F80E20E94B43880E7898341E0BE012A
:107550006F5F7F4F87E20E94B438B801635F7F4F4F
:1075600045E08AE20E94B43881E00E94793888E0E0
:1075700092E00197F1F72296E4E00C94063FA1E037
:10758000B0E0E5ECFAE30C94EA3E8C0180E00E9466
:10759000793860E0C8010E94EF388E7F898341E02E
:1075A000BE016F5F7F4F80E20E94B4380E5E1F4FB6
:1075B00045E0B8018AE20E94B43845E0B80180E3B2
:1075C0000E94B4382196E4E00C94063FA2E0B0E0BB
:1075D000ECEEFAE30C94EA3E8B010E947339282FFB
:1075E00026952770273081F00115110511F0F8015B
:1075F000208380E4898341E0BE016F5F7F4F87E293
:107600002A830E94B4382A8181E090E0273011F467
:1076100080E090E02296E4E00C94063FCF93DF9365
:10762000EC010E94373967E1CE010E94EF3881708A
:1076300090E0DF91CF910895A1E0B0E0E2E2FBE3BA
:107640000C94E83E7C018B0145E08AE20E94B4384C
:1076500045E0B80180E30E94B438F80120E030E052
:107660008191D701A20FB31F52968C932F5F3F4F8A
:1076700025303105A9F7F7018385813208F080E2D2
:10768000898341E0BE016F5F7F4F81E30E94B43880
:107690002196E6E00C94043FA3E1B0E0E2E5FBE3D1
:1076A0000C94E83E8C01E62E86E0E1E5F1E0DE0197
:1076B0001D9601900D928A95E1F786E0E7E5F1E0ED
:1076C000DE01179601900D928A95E1F786E0EDE5CF
:1076D000F1E0DE01119601900D928A95E1F76111BA
:1076E00012C0FA0180E090E02191D801A80FB91FE3
:1076F0001D962C93019685309105B1F7FE01EE0D94
:10770000F11D25E00AC086E0861738F1A1E06A176E
:10771000A9F3FE01E60FF11D21E06585C8010E9475
:10772000D338F12CFE01EE0DFF1DD8011B964C91B4
:107730006781C8010E94DB3862E0C8010E94EF380F
:10774000FE01EE0DFF1D9181982B9B8B41E0BE0148
:107750006D5E7F4F82E20E94B4386396E6E00C943F
:10776000043FA1E0B0E0E7EBFBE30C94EA3E8C01C0
:10777000198241E0BE016F5F7F4F80E60E9495381D
:107780008981813220F0C8010E94653980E021960C
:10779000E4E00C94063FA2E0B0E0E1EDFBE30C94E2
:1077A000E63E8B017A0169010E947339982F80E7C8
:1077B000898341E0BE016F5F7F4F87E29A830E9419
:1077C000B4389A81892F8072F8018083892F807163
:1077D000F70180839074F60190832296E8E00C9480
:1077E000023F67E10E94EF3880710895A2E0B0E0A7
:1077F000ECEFFBE30C94E83E8C017B0167E14A83EC
:107800000E94EF384A8185FF0CC080E1898341E006
:10781000BE016F5F7F4F87E20E94B43885EF9FEF14
:1078200009C0B701C8010E94023981E00E9479387D
:1078300080E090E02296E6E00C94043FA1E0B0E006
:10784000E4E2FCE30C94E63E7C018B0181E00E94C3
:10785000793860E4C62E6CE9D62E0BC09E012F5FEE
:107860003F4FA901B901C7010E94CB3BC601019757
:10787000F1F7C7010E94F13B811103C001501109CA
:1078800069F79E012F5F3F4FA901B901C7010E940F
:10789000CB3B80E00E947938C8012196E8E00C9447
:1078A000023F089590910F01992359F0811120C052
:1078B00080913601909137010E94BF3A10920F01DA
:1078C00008958823A9F06AEF70E0809136019091C5
:1078D00037010E941E3C892B11F40E94B23E809118
:1078E0003601909137010E94913A81E080930F0117
:1078F0000895EF92FF920F931F93CF93DF93EC01C4
:10790000E62E80E00E94523CFF24FA94E39400E9C2
:1079100011E04E2DBE0180913601909137010E94F9
:10792000F63B892B59F02EEB30E0F8013197F1F757
:1079300021503109D1F7FA9461F702C0F11002C069
:107940000E94B23ECDB7DEB7E6E00C94043F209132
:107950006B0130916C01F901EE0FFF1FEF50FE4FEC
:10796000918380832F5F3F4F30936C0120936B0195
:10797000089580913601909137010E947B3A60E032
:1079800071E080913601909137010E948939809190
:107990003601909137010E94513C4AE051E060E08D
:1079A00080913601909137010E944C3B80913601C5
:1079B000909137010E94913A0895A1E2B0E0E3EE80
:1079C000FCE30C94E43EBE016F5D7F4F8091360175
:1079D000909137010E94E63A892B09F4C3C0809147
:1079E0003601909137010E94B13B482F8E010F5F05
:1079F0001F4FB80180913601909137010E940E3BD4
:107A000029812F7009F048C07E0182E0E80EF11C48
:107A1000B70180913601909137010E941C3B809103
:107A20006B018A831B824CE150E063E671E0CE017A
:107A300004960E94233F18A280913601909137014D
:107A40000E9465396FE1C8010E94793C81E0809312
:107A50006A01D12C8FE0C82E12C0EE0FFF1FEF502D
:107A6000FE4F0190F081E02DD7018C2D01900D92F9
:107A70008A95E1F76FE0C8010E94793CD394ED2D1F
:107A8000F0E080916B0190916C01E817F9072CF3FD
:107A900081E00E94523C66C0EA81F0E080916B0177
:107AA00090916C01E817F9070CF05CC02330D1F518
:107AB000CB80DC80ED80FE801B821C821D821E82BA
:107AC000EA81F0E0EE0FFF1FEF50FE4F80819181C1
:107AD0004B815C816D817E81DC011F96ED91FC9173
:107AE00050979E01295F3F4F09955C01682F6B5F9E
:107AF000C8010E94793CA501662757FD6095762F45
:107B00008B819C81AD81BE81480F591F6A1F7B1FED
:107B10004B835C836D837E834C155D056E057F050D
:107B200078F2B6CF2430A1F4EE0FFF1FEF50FE4FD6
:107B3000808191814B815C816D817E81DC015196D8
:107B4000ED91FC9152979E01295F3F4F09950AC024
:107B5000223041F4EE0FFF1FEF50FE4F80819181E4
:107B60000E94593EA196EAE00C94003FCB01BA0175
:107B700048E150E0C9010E94423F0895CF93DF934E
:107B8000EC01CB01BA0149815A816417750740F4B1
:107B900048E150E0C9010E94323F888190E002C074
:107BA00080E090E0DF91CF910895CF92DF92EF9245
:107BB000FF92CF93DF93EC016A017B014F7755274A
:107BC00066277727CA0181599E4F488150E0B90145
:107BD0000E94133F8881A7019601280F311D411D86
:107BE000511DDA01C9018F779927AA27BB27892B55
:107BF0008A2B8B2B09F039C030E8C3225FB7F89489
:107C0000F999FECF83E0F60180935700E89507B617
:107C100000FCFDCF40916F0180E090E061E0DC016D
:107C2000A159BE4FFC01EC0DFD1D11962C91119731
:107C300030E0322F2227240F311D090160935700B5
:107C4000E895112412964C9102968038910539F7E7
:107C500085E0F60180935700E89507B600FCFDCF5C
:107C600081E180935700E8955FBFDF91CF91FF904E
:107C7000EF90DF90CF9008950F931F93CF93DF93F2
:107C8000EC01C90109811A812B813C814017510700
:107C90006207730738F4288130E00E9463388881D6
:107CA00090E002C080E090E0DF91CF911F910F91B2
:107CB0000895F89481E180935700E895E0916D0173
:107CC000F0916E01099583E291E00E94A73C08952E
:107CD00080E191E00E94A73C089580916A018111A2
:107CE0001BC084EF91E020E931E0F9013197F1F711
:107CF0000197D9F78091EF019091F0019C012F5FDE
:107D00003F4F3093F0012093EF018536910524F029
:107D100080E090E00E94593E0895089507C0FC015C
:107D20002191CF012EBD0DB407FEFDCF6150B8F7F4
:107D300008952FEF08C02EBD0DB407FEFDCF3EB550
:107D4000FC013193CF016150B0F70895892B11F0F8
:107D5000299A089529980895892B11F02A9A08954F
:107D60002A98089529E088E190E00FB6F894A89544
:107D7000809360000FBE20936000FFCF88E10FB6B4
:107D8000F89480936000109260000FBE219A229AAE
:107D9000249884B18C6284B985B18C6385B980E5FF
:107DA0008CBD81E08DBD08955A9A4A9904C080E047
:107DB00090E00E94593E08952F923F924F925F9219
:107DC0006F927F928F929F92AF92BF92CF92DF92EB
:107DD000EF92FF920F931F93CF93DF93CDB7DEB750
:107DE000CA1BDB0B0FB6F894DEBF0FBECDBF0994E4
:107DF0002A88398848885F846E847D848C849B843B
:107E0000AA84B984C884DF80EE80FD800C811B8148
:107E1000AA81B981CE0FD11D0FB6F894DEBF0FBE77
:107E2000CDBFED010895FB01DC0102C001900D9270
:107E300041505040D8F70895DC0101C06D93415086
:107E40005040E0F70895FB01DC014150504048F0FC
:107E500001900D920020C9F701C01D924150504081
:107E6000E0F70895DC01CB01FC01F999FECF06C0D3
:107E7000F2BDE1BDF89A319600B40D9241505040E8
:107E8000B8F70895DC01CB0103C02D910E944D3F4E
:107E900041505040D0F70895262FF999FECF1FBAD0
:107EA00092BD81BD20BD0FB6F894FA9AF99A0FBE23
:0C7EB000019608950C945938F894FFCF07
:107EBC000D03010F0F00012002FFB00B10ADED01FF
:107ECC0010007000008000666C6173680000003C5C
:107EDC003ED53D18000400000100656570726F6DA1
:107EEC000000BE3DB63D3801A63EAC3E8D3E8E3EFA
:107EFC00993E00000000000000000000000000009F
:107F0C00000A0B0C0D0E0F1112131415160102049E
:0A7F1C000810206F75746C65740086
:040000030000700089
:00000001FF
