:107000000C9434380C9465380C9465380C946538BD
:107010000C9465380C9465380C9465380C9465387C
:107020000C9465380C9465380C9465380C9465386C
:107030000C9465380C9465380C9465380C9465385C
:107040000C9465380C9465380C9465380C9465384C
:107050000C9465380C9465380C9465380C9465383C
:107060000C9465380C94653811241FBECFEFD8E01E
:10707000DEBFCDBF11E0A0E0B1E0E2E7FEE702C075
:1070800005900D92AE36B107D9F711E0AEE6B1E04A
:1070900001C01D92AB3FB107E1F7F8940E94983808
:1070A0000E94683E0E946D3E0E94723E0E94AB3E6E
:1070B0000E94B33E78940E94D93C0E94FD3C0E94FD
:1070C0007E3E0E9470380C94353F0C940038FA01D3
:1070D000DC0102C005900D9221503040D8F7089590
:1070E00080E090E00895089507C0FC012191CF0150
:1070F0002EBD0DB407FEFDCF6150B8F708952FEFF8
:1071000008C02EBD0DB407FEFDCF3EB5FC01319386
:10711000CF016150B0F70895892B11F0439A08957B
:1071200043980895892B11F0429A08954298089542
:107130003B9A3A9A249884B18C6284B985B18C6365
:1071400085B980E58CBD81E08DBD0895E091000199
:10715000F09101010190F081E02D90E009950895F2
:10716000E0910001F09101010280F381E02D90E0B7
:1071700009950895E0910001F09101010680F781E1
:10718000E02D09950895E0910001F091010100843E
:10719000F185E02D09950895A2E0B0E0E2EDF8E375
:1071A0000C94CE3E89838B0180E04A830E94A638EE
:1071B00061E0CE0101960E94BA384A81442321F051
:1071C000642FC8010E94C33881E00E94A63822962D
:1071D000E4E00C94EA3EA2E0B0E0E1EFF8E30C94C6
:1071E000CE3E89838B0180E04A830E94A63861E00D
:1071F000CE0101960E94BA384A81442321F0642FBF
:10720000C8010E94BA3881E00E94A6382296E4E0C4
:107210000C94EA3E862FBA018F71422F80620E9441
:10722000EB380895A1E0B0E0E8E1F9E30C94D03E3A
:10723000862F49838F7141E0BE016F5F7F4F80626F
:107240000E94EB382196E2E00C94EC3EA1E0B0E025
:10725000ECE2F9E30C94D03E862F41E0BE016F5F73
:107260007F4F8F710E94CC3889812196E2E00C9487
:10727000EC3EA1E2B0E0EFE3F9E30C94CC3EFC017C
:107280008B0180EA89A3E384F42EE41608F4FE2C33
:10729000828583FD02C0EF1801C0E12C4E2D50E025
:1072A00060E070E0CE0101960E94F73E80E00E940F
:1072B000A63861E0CE0181960E94BA386F2DC801D0
:1072C0000E94BA386E2DCE0101960E94BA3881E034
:1072D0000E94A638A196E6E00C94E83EA1E2B0E058
:1072E000E4E7F9E30C94CC3EFC018B0181E689A331
:1072F0006385F42E641708F4F62E828583FD03C09F
:10730000E62EEF1801C0E12C80E00E94A63861E073
:10731000CE0181960E94BA386F2DC8010E94C338F1
:107320006E2DCE0101960E94C33881E00E94A638DE
:10733000A196E6E00C94E83E40E060E070E082EE6A
:107340000E94CC38089540E060E070E081EE0E9439
:10735000CC380895A1E0B0E0E0EBF9E30C94D03E26
:1073600080E00E94A63861E0CE0101960E94C338F9
:1073700081E00E94A63889812196E2E00C94EC3EDF
:10738000AAE0B0E0E6ECF9E30C94CA3E8C017B0184
:1073900080E00E94B038F7018081803808F08FE7E4
:1073A0008A8741E0BE01665F7F4F85E20E94EB382D
:1073B000F7018481F0E18F9FC0011124F7019381CF
:1073C0009F70982B998741E0BE01675F7F4F84E2F1
:1073D0000E94EB386DE1C8010E942639C82E6CE18D
:1073E000C8010E942639F7012781213208F020E2E6
:1073F000F8012387F7019681F8012285992341F04E
:107400009C2D9460286022874FE3D42ED82A08C090
:107410009C2D9B7F277FF801228730ECD32ED8222A
:10742000F7012581F8018285222341F0806182875E
:1074300026E0C22EC92AF3E0DF2A06C08F7EF801BB
:1074400082878DEFC82EC922C88641E0BE01685FE1
:107450007F4F8DE30E94EB38CC20F1F06DE1C80145
:107460000E942639811175C080E5898383E78A836C
:1074700080E00E94A63862E0CE0101960E94BA38F0
:1074800081E00E94A638CF8241E0BE01695F7F4F54
:107490008DE30E94EB385DC0DE8241E0BE016A5F91
:1074A0007F4F8CE30E94EB3866E0C8010E942639CA
:1074B000F8019285292F21602287877DF70122819B
:1074C000223029F49E7FF8019287806203C0213028
:1074D00009F48860897FF7019181933009F40AC02B
:1074E000923011F4846007C0913011F4826003C0BF
:1074F000943009F486608D8341E0BE016B5F7F4F5D
:1075000086E20E94EB3860E0C8010E942639837F42
:10751000F7019085913011F4886001C08C608C83F4
:1075200041E0BE016C5F7F4F80E20E94EB38F701C3
:1075300081858F738B8341E0BE016D5F7F4F81E258
:107540000E94EB38C8010E949C39C8010E94A339EF
:1075500005C06DE1C8010E9426399ECF2A96E8E059
:107560000C94E63EFC0181E0828780E283871586E9
:1075700016861786108A118A148680E00E94B03819
:1075800081E00E94A63880E29EE40197F1F7089519
:10759000A2E0B0E0EEECFAE30C94CE3E8C0160E0A9
:1075A0000E94263983608A8341E0BE016E5F7F4F6F
:1075B00080E20E94EB3880E7898341E0BE016F5F83
:1075C0007F4F87E20E94EB38B801635F7F4F45E051
:1075D0008AE20E94EB3881E00E94B03888E092E0B5
:1075E0000197F1F72296E4E00C94EA3EA1E0B0E0C6
:1075F000ECEFFAE30C94CE3E8C0180E00E94B038B0
:1076000060E0C8010E9426398E7F898341E0BE0177
:107610006F5F7F4F80E20E94EB380E5E1F4F45E0A8
:10762000B8018AE20E94EB3845E0B80180E30E948D
:10763000EB382196E4E00C94EA3EA2E0B0E0E3E20D
:10764000FBE30C94CE3E8B010E94AA39282F26958D
:107650002770273081F00115110511F0F801208302
:1076600080E4898341E0BE016F5F7F4F87E22A8318
:107670000E94EB382A8181E090E0273011F480E00D
:1076800090E02296E4E00C94EA3ECF93DF93EC0185
:107690000E946E3967E1CE010E942639817090E028
:1076A000DF91CF910895A1E0B0E0E9E5FBE30C9410
:1076B000CC3E7C018B0145E08AE20E94EB3845E03C
:1076C000B80180E30E94EB38F80120E030E08191BE
:1076D000D701A20FB31F52968C932F5F3F4F2530D7
:1076E0003105A9F7F7018385813208F080E28983AB
:1076F00041E0BE016F5F7F4F81E30E94EB3821962E
:10770000E6E00C94E83EA3E1B0E0E9E8FBE30C948A
:10771000CC3E8C01E62E86E0E1E5F1E0DE011D962F
:1077200001900D928A95E1F786E0E7E5F1E0DE0150
:10773000179601900D928A95E1F786E0EDE5F1E06C
:10774000DE01119601900D928A95E1F7611112C048
:10775000FA0180E090E02191D801A80FB91F1D9691
:107760002C93019685309105B1F7FE01EE0DF11DC8
:1077700025E00AC086E0861738F1A1E06A17A9F370
:10778000FE01E60FF11D21E06585C8010E940A395E
:10779000F12CFE01EE0DFF1DD8011B964C91678167
:1077A000C8010E94123962E0C8010E942639FE0118
:1077B000EE0DFF1D9181982B9B8B41E0BE016D5E0C
:1077C0007F4F82E20E94EB386396E6E00C94E83E3D
:1077D000A1E0B0E0EEEEFBE30C94CE3E8C0119820A
:1077E00041E0BE016F5F7F4F80E60E94CC38898107
:1077F000813220F0C8010E949C3980E02196E4E0AB
:107800000C94EA3EA2E0B0E0E8E0FCE30C94CA3E4F
:107810008B017A0169010E94AA39982F80E7898338
:1078200041E0BE016F5F7F4F87E29A830E94EB3891
:107830009A81892F8072F8018083892F8071F701E6
:1078400080839074F60190832296E8E00C94E63EE3
:1078500067E10E94263980710895A2E0B0E0E3E379
:10786000FCE30C94CC3E8C017B0167E14A830E94CF
:1078700026394A8185FF0CC080E1898341E0BE0141
:107880006F5F7F4F87E20E94EB3885EF9FEF09C063
:10789000B701C8010E94393981E00E94B03880E008
:1078A00090E02296E6E00C94E83EA1E0B0E0EBE543
:1078B000FCE30C94CA3E7C018B0181E00E94B0384D
:1078C00060E4C62E6CE9D62E0BC09E012F5F3F4FA1
:1078D000A901B901C7010E94023CC6010197F1F755
:1078E000C7010E94283C811103C00150110969F7AA
:1078F0009E012F5F3F4FA901B901C7010E94023CC1
:1079000080E00E94B038C8012196E8E00C94E63E81
:10791000089590912A01992359F0811120C08091F6
:107920000001909101010E94F63A10922A010895F7
:107930008823A9F06AEF70E0809100019091010125
:107940000E94553C892B11F40E949F3E80910001BA
:10795000909101010E94C83A81E080932A01089524
:107960001F93CF93DF93EC01162F80E00E94893C98
:107970001F5F412FBE0180910001909101010E9483
:107980002D3C892BB1F7DF91CF911F910895209164
:107990006F0130917001F901EE0FFF1FEB50FE4FA8
:1079A000918380832F5F3F4F3093700120936F014D
:1079B000089580910001909101010E94B23A6BE11B
:1079C00071E080910001909101010E94C039809185
:1079D0000001909101010E94883C45E251E060E085
:1079E00080910001909101010E94833B80910001F0
:1079F000909101010E94C83A0895A1E2B0E0E3E04D
:107A0000FDE30C94C83EBE016F5D7F4F8091000185
:107A1000909101010E941D3B892B09F4C3C0809104
:107A20000001909101010E94E83B482F8E010F5FF9
:107A30001F4FB80180910001909101010E94453BC8
:107A400029812F7009F048C07E0182E0E80EF11C08
:107A5000B70180910001909101010E94533B8091F8
:107A60006F018A831B824CE150E063E671E0CE0136
:107A700004960E94FE3E18A280910001909101019F
:107A80000E949C396FE1C8010E94B03C81E0809364
:107A90006E01D12C8FE0C82E12C0EE0FFF1FEB50ED
:107AA000FE4F0190F081E02DD7018C2D01900D92B9
:107AB0008A95E1F76FE0C8010E94B03CD394ED2DA8
:107AC000F0E080916F0190917001E817F9072CF3B5
:107AD00081E00E94893C66C0EA81F0E080916F01FC
:107AE00090917001E817F9070CF05CC02330D1F5D4
:107AF000CB80DC80ED80FE801B821C821D821E827A
:107B0000EA81F0E0EE0FFF1FEB50FE4F8081918184
:107B10004B815C816D817E81DC011F96ED91FC9132
:107B200050979E01295F3F4F09955C01682F6B5F5D
:107B3000C8010E94B03CA501662757FD6095762FCD
:107B40008B819C81AD81BE81480F591F6A1F7B1FAD
:107B50004B835C836D837E834C155D056E057F05CD
:107B600078F2B6CF2430A1F4EE0FFF1FEB50FE4F9A
:107B7000808191814B815C816D817E81DC01519698
:107B8000ED91FC9152979E01295F3F4F09950AC0E4
:107B9000223041F4EE0FFF1FEB50FE4F80819181A8
:107BA0000E94583EA196EAE00C94E43EC9014115BA
:107BB00020E752076105710538F420E130E00E94AA
:107BC000673880E190E0089580E090E00895CB016F
:107BD000BA0140E150E0C9010E941D3F0895CB0168
:107BE000BA01611544E0740740F440E150E0C90176
:107BF0000E940D3F80E190E0089580E090E00895BC
:107C0000CF93DB01CA018F779927AA27BB27DC0115
:107C1000AD58BE4FC0E1F90101900D92CA95E1F750
:107C2000DB01CA014096A11DB11D8F779927AA27B4
:107C3000BB27892B8A2B8B2B09F038C04078CFB714
:107C4000F894F999FECF83E0FA0180935700E89504
:107C500007B600FCFDCF6091730180E090E071E019
:107C6000DC01AD58BE4FFC01E40FF51F11962C91BD
:107C7000119730E0322F2227260F311D0901709312
:107C80005700E895112412966C9102968038910560
:107C900039F785E0FA0180935700E89507B600FCB4
:107CA000FDCF81E180935700E895CFBFCF91089534
:107CB00080910001909101010E94F63AF89481E1CF
:107CC00080935700E895E0917101F0917201099558
:107CD0008EE391E00E94C73C08958BE291E00E9400
:107CE000C73C089529E288E190E00FB6F894A89582
:107CF000809360000FBE209360000895A895809146
:107D00006E0181111BC084EF91E020E931E0F9019F
:107D10003197F1F70197D9F78091F3019091F40130
:107D20009C012F5F3F4F3093F4012093F301853680
:107D3000910524F080E090E00E94583E089529E0EB
:107D400088E190E00FB6F894A895809360000FBE8C
:107D500020936000FFCF419A319904C080E090E009
:107D60000E94583E089584B18E6084B985B1817FA8
:107D700085B98AB188668AB98AB187798AB908953E
:107D80002F923F924F925F926F927F928F929F922B
:107D9000AF92BF92CF92DF92EF92FF920F931F9319
:107DA000CF93DF93CDB7DEB7CA1BDB0B0FB6F894CA
:107DB000DEBF0FBECDBF09942A88398848885F840A
:107DC0006E847D848C849B84AA84B984C884DF807B
:107DD000EE80FD800C811B81AA81B981CE0FD11D5F
:107DE0000FB6F894DEBF0FBECDBFED010895DC01E4
:107DF00001C06D9341505040E0F70895FB01DC0154
:107E00004150504048F001900D920020C9F701C048
:107E10001D9241505040E0F70895DC01CB01FC0178
:107E2000F999FECF06C0F2BDE1BDF89A319600B4D3
:107E30000D9241505040B8F70895DC01CB0103C0CA
:107E40002D910E94283F41505040D0F70895262F91
:107E5000F999FECF1FBA92BD81BD20BD0FB6F8942F
:107E6000FA9AF99A0FBE019608950C945D38F89429
:027E7000FFCF42
:107E720002018C389238733874387F380000000061
:107E820000000000000000000000000D03010F0FC1
:107E920000012002FFB00B10ADED011000700000D8
:107EA2008000666C617368000000D63D003E1000E1
:107EB2000400000100656570726F6D0000EF3DE720
:107EC2003D0A0B0C0D0E0F111213141516010204AC
:0E7ED20008102076696B6F2D776973700000C1
:040000030000700089
:00000001FF
