:107000000C9434380C9465380C9465380C946538BD
:107010000C9465380C9465380C9465380C9465387C
:107020000C9465380C9465380C9465380C9465386C
:107030000C9465380C9465380C9465380C9465385C
:107040000C9465380C9465380C9465380C9465384C
:107050000C9465380C9465380C9465380C9465383C
:107060000C9465380C94653811241FBECFEFD8E01E
:10707000DEBFCDBF11E0A0E0B1E0E2E1FFE702C07A
:1070800005900D92AC36B107D9F711E0ACE6B1E04E
:1070900001C01D92A93FB107E1F7F8940E94D238D0
:1070A0000E949F3E0E94A43E0E94A93E0E94E23E92
:1070B0000E94FB3E78940E94103D0E94343D0E9445
:1070C000B53E0E9470380C94853F0C940038FA014C
:1070D000DC0102C005900D9221503040D8F7089590
:1070E00080E090E008950895482F27E030E080E0A8
:1070F00050E061E070E02D98FA01022E02C0F59593
:10710000E7950A94E2F7E0FF02C0289A01C02898A8
:107110002D9A1C9B07C0962F022E01C0990F0A942E
:10712000EAF701C090E0892B2150310920F72D9812
:107130000895A1E0B0E0EFE9F8E30C94163F8C016C
:10714000680F07C0F80181918F0169830E9474382C
:1071500069816013F7CF2196E4E00C94323FA1E0FF
:10716000B0E0E5EBF8E30C94163F8C01680F08C023
:107170008FEF69830E947438F80181938F016981D0
:107180006013F6CF2196E4E00C94323F892B11F086
:10719000439A089543980895892B11F0429A0895CF
:1071A000429808953B9A3A9A84B1816284B92498AE
:1071B00085B1816285B92D980895E0910001F09123
:1071C00001010190F081E02D90E009950895E09192
:1071D0000001F09101010280F381E02D90E009951A
:1071E0000895E0910001F09101010680F781E02D02
:1071F00009950895E0910001F09101010084F18565
:10720000E02D09950895A2E0B0E0E9E0F9E30C94DF
:10721000163F89838B0180E04A830E94DD3861E05C
:10722000CE0101960E94F1384A81442321F0642F57
:10723000C8010E94FA3881E00E94DD382296E4E01D
:107240000C94323FA2E0B0E0E8E2F9E30C94163F80
:1072500089838B0180E04A830E94DD3861E0CE01A2
:1072600001960E94F1384A81442321F0642FC8011D
:107270000E94F13881E00E94DD382296E4E00C940F
:10728000323F862FBA018F71422F80620E942239CD
:107290000895A1E0B0E0EFE4F9E30C94183F862FE5
:1072A00049838F7141E0BE016F5F7F4F80620E9412
:1072B00022392196E2E00C94343FA1E0B0E0E3E60D
:1072C000F9E30C94183F862F41E0BE016F5F7F4FBA
:1072D0008F710E94033989812196E2E00C94343F3A
:1072E000A1E2B0E0E6E7F9E30C94143FFC018B0166
:1072F00080EA89A3E384F42EE41608F4FE2C828548
:1073000083FD02C0EF1801C0E12C4E2D50E060E07B
:1073100070E0CE0101960E943F3F80E00E94DD3880
:1073200061E0CE0181960E94F1386F2DC8010E9464
:10733000F1386E2DCE0101960E94F13881E00E9455
:10734000DD38A196E6E00C94303FA1E2B0E0EBEA34
:10735000F9E30C94143FFC018B0181E689A363855A
:10736000F42E641708F4F62E828583FD03C0E62E02
:10737000EF1801C0E12C80E00E94DD3861E0CE0111
:1073800081960E94F1386F2DC8010E94FA386E2D47
:10739000CE0101960E94FA3881E00E94DD38A19664
:1073A000E6E00C94303F40E060E070E082EE0E9446
:1073B0000339089540E060E070E081EE0E940339F7
:1073C0000895A1E0B0E0E7EEF9E30C94183F80E007
:1073D0000E94DD3861E0CE0101960E94FA3881E01A
:1073E0000E94DD3889812196E2E00C94343FAAE0C6
:1073F000B0E0EDEFF9E30C94123F8C017B0180E0EB
:107400000E94E738F7018081803808F08FE78A878B
:1074100041E0BE01665F7F4F85E20E942239F7019D
:107420008481F0E18F9FC0011124F70193819F7047
:10743000982B998741E0BE01675F7F4F84E20E94ED
:1074400022396DE1C8010E945D39C82E6CE1C80186
:107450000E945D39F7012781213208F020E2F8010E
:107460002387F7019681F8012285992341F09C2D0D
:107470009460286022874FE3D42ED82A08C09C2D20
:107480009B7F277FF801228730ECD32ED822F7018B
:107490002581F8018285222341F08061828726E0E0
:1074A000C22EC92AF3E0DF2A06C08F7EF801828748
:1074B0008DEFC82EC922C88641E0BE01685F7F4FAC
:1074C0008DE30E942239CC20F1F06DE1C8010E94C9
:1074D0005D39811175C080E5898383E78A8380E007
:1074E0000E94DD3862E0CE0101960E94F13881E011
:1074F0000E94DD38CF8241E0BE01695F7F4F8DE39E
:107500000E9422395DC0DE8241E0BE016A5F7F4F8A
:107510008CE30E94223966E0C8010E945D39F801BF
:107520009285292F21602287877DF70122812230D1
:1075300029F49E7FF8019287806203C0213009F40C
:107540008860897FF7019181933009F40AC09230F5
:1075500011F4846007C0913011F4826003C094304C
:1075600009F486608D8341E0BE016B5F7F4F86E248
:107570000E94223960E0C8010E945D39837FF701D3
:107580009085913011F4886001C08C608C8341E05B
:10759000BE016C5F7F4F80E20E942239F701818536
:1075A0008F738B8341E0BE016D5F7F4F81E20E944C
:1075B0002239C8010E94D339C8010E94DA3905C0B6
:1075C0006DE1C8010E945D399ECF2A96E8E00C94D7
:1075D0002E3FFC0181E0828780E283871586168634
:1075E0001786108A118A148680E00E94E73881E0AD
:1075F0000E94DD3880E197E20197F1F70895A2E05B
:10760000B0E0E5E0FBE30C94163F8C0160E00E94E3
:107610005D3983608A8341E0BE016E5F7F4F80E207
:107620000E94223980E7898341E0BE016F5F7F4F6E
:1076300087E20E942239B801635F7F4F45E08AE20A
:107640000E94223981E00E94E73884E091E00197AE
:10765000F1F72296E4E00C94323FA1E0B0E0E3E3DE
:10766000FBE30C94163F8C0180E00E94E73860E059
:10767000C8010E945D398E7F898341E0BE016F5F42
:107680007F4F80E20E9422390E5E1F4F45E0B80115
:107690008AE20E94223945E0B80180E30E94223943
:1076A0002196E4E00C94323FA2E0B0E0EAE5FBE38F
:1076B0000C94163F8B010E94E139282F26952770E4
:1076C000273081F00115110511F0F801208380E4C5
:1076D000898341E0BE016F5F7F4F87E22A830E946A
:1076E00022392A8181E090E0273011F480E090E097
:1076F0002296E4E00C94323FCF93DF93EC010E949A
:10770000A53967E1CE010E945D39817090E0DF917B
:10771000CF910895A1E0B0E0E0E9FBE30C94143FC1
:107720007C018B0145E08AE20E94223945E0B801E4
:1077300080E30E942239F80120E030E08191D701F6
:10774000A20FB31F52968C932F5F3F4F2530310508
:10775000A9F7F7018385813208F080E2898341E04F
:10776000BE016F5F7F4F81E30E9422392196E6E0E0
:107770000C94303FA3E1B0E0E0ECFBE30C94143F49
:107780008C01E62E86E0E1E5F1E0DE011D96019038
:107790000D928A95E1F786E0E7E5F1E0DE011796C4
:1077A00001900D928A95E1F786E0EDE5F1E0DE01CA
:1077B000119601900D928A95E1F7611112C0FA01BC
:1077C00080E090E02191D801A80FB91F1D962C935D
:1077D000019685309105B1F7FE01EE0DF11D25E012
:1077E0000AC086E0861738F1A1E06A17A9F3FE0106
:1077F000E60FF11D21E06585C8010E944139F12C99
:10780000FE01EE0DFF1DD8011B964C916781C8014A
:107810000E94493962E0C8010E945D39FE01EE0D07
:10782000FF1D9181982B9B8B41E0BE016D5E7F4FC8
:1078300082E20E9422396396E6E00C94303FA1E098
:10784000B0E0E5E2FCE30C94163F8C01198241E0C4
:10785000BE016F5F7F4F80E60E94033989818132CC
:1078600020F0C8010E94D33980E02196E4E00C9416
:10787000323FA2E0B0E0EFE3FCE30C94123F8B0157
:107880007A0169010E94E139982F80E7898341E0FC
:10789000BE016F5F7F4F87E29A830E9422399A81EF
:1078A000892F8072F8018083892F8071F70180838E
:1078B0009074F60190832296E8E00C942E3F67E1E5
:1078C0000E945D3980710895A2E0B0E0EAE6FCE331
:1078D0000C94143F8C017B0167E14A830E945D395F
:1078E0004A8185FF0CC080E1898341E0BE016F5F62
:1078F0007F4F87E20E94223985EF9FEF09C0B701D1
:10790000C8010E94703981E00E94E73880E090E071
:107910002296E6E00C94303FA1E0B0E0E2E9FCE31F
:107920000C94123F7C018B0181E00E94E73860E2F9
:10793000C62E6EE4D62E0BC09E012F5F3F4FA901CD
:10794000B901C7010E94393CC6010197F1F7C7018F
:107950000E945F3C811103C00150110969F79E012B
:107960002F5F3F4FA901B901C7010E94393C80E058
:107970000E94E738C8012196E8E00C942E3F089554
:1079800090912A01992359F0811120C08091000122
:10799000909101010E942D3B10922A0108958823A5
:1079A000A9F06AEF70E080910001909101010E94BE
:1079B0008C3C892B11F40E94D63E8091000190915D
:1079C00001010E94FF3A81E080932A0108951F93EC
:1079D000CF93DF93EC01162F80E00E94C03C1F5F25
:1079E000412FBE0180910001909101010E94643CF1
:1079F000892BB1F7DF91CF911F91089520916D01EF
:107A000030916E01F901EE0FFF1FED50FE4F918393
:107A100080832F5F3F4F30936E0120936D01089557
:107A200080910001909101010E94E93A6BE171E0BF
:107A300080910001909101010E94F739809100012D
:107A4000909101010E94BF3C45E251E060E08091CD
:107A50000001909101010E94BA3B80910001909138
:107A600001010E94FF3A0895A1E2B0E0EAE3FDE3DC
:107A70000C94103FBE016F5D7F4F8091000190918B
:107A800001010E94543B892B09F4C3C0809100017D
:107A9000909101010E941F3C482F8E010F5F1F4FE4
:107AA000B80180910001909101010E947C3B2981E5
:107AB0002F7009F048C07E0182E0E80EF11CB7018A
:107AC00080910001909101010E948A3B80916D019B
:107AD0008A831B824CE150E063E671E0CE0104969C
:107AE0000E94463F18A280910001909101010E94DE
:107AF000D3396FE1C8010E94E73C81E080936C01BB
:107B0000D12C8FE0C82E12C0EE0FFF1FED50FE4F9C
:107B10000190F081E02DD7018C2D01900D928A9576
:107B2000E1F76FE0C8010E94E73CD394ED2DF0E04F
:107B300080916D0190916E01E817F9072CF381E0B7
:107B40000E94C03C66C0EA81F0E080916D01909196
:107B50006E01E817F9070CF05CC02330D1F5CB803B
:107B6000DC80ED80FE801B821C821D821E82EA81E9
:107B7000F0E0EE0FFF1FED50FE4F808191814B81B1
:107B80005C816D817E81DC011F96ED91FC915097A7
:107B90009E01295F3F4F09955C01682F6B5FC8010B
:107BA0000E94E73CA501662757FD6095762F8B81E3
:107BB0009C81AD81BE81480F591F6A1F7B1F4B837B
:107BC0005C836D837E834C155D056E057F0578F2C1
:107BD000B6CF2430A1F4EE0FFF1FED50FE4F808191
:107BE00091814B815C816D817E81DC015196ED91AB
:107BF000FC9152979E01295F3F4F09950AC02230A0
:107C000041F4EE0FFF1FED50FE4F808191810E94E5
:107C10008F3EA196EAE00C942C3FC901411520E764
:107C200052076105710538F420E130E00E946738A1
:107C300080E190E0089580E090E00895CB01BA01E2
:107C400040E150E0C9010E946D3F0895CB01BA01A7
:107C5000611544E0740740F440E150E0C9010E941E
:107C6000553F80E190E0089580E090E00895CF9343
:107C7000DB01CA018F779927AA27BB27DC01AF5800
:107C8000BE4FC0E1F90101900D92CA95E1F7DB0109
:107C9000CA014096A11DB11D8F779927AA27BB273E
:107CA000892B8A2B8B2B09F038C04078CFB7F894FA
:107CB000F999FECF83E0FA0180935700E89507B663
:107CC00000FCFDCF6091710180E090E071E0DC018B
:107CD000AF58BE4FFC01E40FF51F11962C91119780
:107CE00030E0322F2227260F311D090170935700F3
:107CF000E895112412966C9102968038910539F717
:107D000085E0FA0180935700E89507B600FCFDCFA7
:107D100081E180935700E895CFBFCF91089580917E
:107D20000001909101010E942D3BF89481E1809324
:107D30005700E895E0916F01F091700109958EE38D
:107D400091E00E94FE3C08958BE291E00E94FE3C8F
:107D5000089529E288E190E00FB6F894A895809301
:107D600060000FBE209360000895A89580916C017B
:107D700081111BC084EF91E028EC30E0F9013197CC
:107D8000F1F70197D9F78091F1019091F2019C01EF
:107D90002F5F3F4F3093F2012093F101853691051B
:107DA00024F080E090E00E948F3E089529E088E171
:107DB00090E00FB6F894A895809360000FBE2093D2
:107DC0006000FFCF8FEF93E00E94653F8E3D59F436
:107DD00080916C018F5F80936C016FEF8FEF93E068
:107DE0000E94773F0895419A319904C080E090E065
:107DF0000E948F3E089584B18E6084B985B1817FE1
:107E000085B98AB188668AB98AB187798AB90895AD
:107E10002F923F924F925F926F927F928F929F929A
:107E2000AF92BF92CF92DF92EF92FF920F931F9388
:107E3000CF93DF93CDB7DEB7CA1BDB0B0FB6F89439
:107E4000DEBF0FBECDBF09942A88398848885F8479
:107E50006E847D848C849B84AA84B984C884DF80EA
:107E6000EE80FD800C811B81AA81B981CE0FD11DCE
:107E70000FB6F894DEBF0FBECDBFED010895DC0153
:107E800001C06D9341505040E0F70895FB01DC01C3
:107E90004150504048F001900D920020C9F701C0B8
:107EA0001D9241505040E0F70895DC01CB01FC01E8
:107EB000F999FECF06C0F2BDE1BDF89A319600B443
:107EC0000D9241505040B8F70895F999FECF92BDF8
:107ED00081BDF89A992780B50895DC01CB0103C0D4
:107EE0002D910E94783F41505040D0F70895262FA1
:107EF000F999FECF1FBA92BD81BD20BD0FB6F8948F
:107F0000FA9AF99A0FBE019608950C945D38F89488
:027F1000FFCFA1
:107F12000201C638CC3873389938AF3800000000F7
:107F220000000000000000000000000D03010F0F20
:107F320000012002FFB00B10ADED01100070000037
:107F42008000666C6173680000000D3E373E1000D1
:107F52000400000100656570726F6D0000263E1E10
:107F62003E0A0B0C0D0E0F1112131415160102040A
:0C7F72000810207265642D7769737000A0
:040000030000700089
:00000001FF
